{
  "_format": "hh-sol-artifact-1",
  "contractName": "ContributionTracker",
  "sourceName": "contracts/ContributionTracker.sol",
  "abi": [
    {
      "anonymous": false,
      "inputs": [
        {
          "indexed": true,
          "internalType": "bytes32",
          "name": "workspaceId",
          "type": "bytes32"
        },
        {
          "indexed": false,
          "internalType": "address",
          "name": "contributor",
          "type": "address"
        },
        {
          "indexed": false,
          "internalType": "uint256",
          "name": "amount",
          "type": "uint256"
        },
        {
          "indexed": false,
          "internalType": "string",
          "name": "actionType",
          "type": "string"
        }
      ],
      "name": "ContributionRecorded",
      "type": "event"
    },
    {
      "inputs": [
        {
          "internalType": "bytes32",
          "name": "",
          "type": "bytes32"
        },
        {
          "internalType": "address",
          "name": "",
          "type": "address"
        }
      ],
      "name": "contributions",
      "outputs": [
        {
          "internalType": "uint256",
          "name": "",
          "type": "uint256"
        }
      ],
      "stateMutability": "view",
      "type": "function"
    },
    {
      "inputs": [
        {
          "internalType": "bytes32",
          "name": "workspaceId",
          "type": "bytes32"
        },
        {
          "internalType": "address",
          "name": "contributor",
          "type": "address"
        }
      ],
      "name": "getContribution",
      "outputs": [
        {
          "internalType": "uint256",
          "name": "",
          "type": "uint256"
        }
      ],
      "stateMutability": "view",
      "type": "function"
    },
    {
      "inputs": [
        {
          "internalType": "bytes32",
          "name": "workspaceId",
          "type": "bytes32"
        },
        {
          "internalType": "address",
          "name": "contributor",
          "type": "address"
        }
      ],
      "name": "getSharePercentage",
      "outputs": [
        {
          "internalType": "uint256",
          "name": "",
          "type": "uint256"
        }
      ],
      "stateMutability": "view",
      "type": "function"
    },
    {
      "inputs": [
        {
          "internalType": "bytes32",
          "name": "workspaceId",
          "type": "bytes32"
        },
        {
          "internalType": "address",
          "name": "contributor",
          "type": "address"
        },
        {
          "internalType": "uint256",
          "name": "amount",
          "type": "uint256"
        },
        {
          "internalType": "string",
          "name": "actionType",
          "type": "string"
        }
      ],
      "name": "recordContribution",
      "outputs": [],
      "stateMutability": "nonpayable",
      "type": "function"
    },
    {
      "inputs": [
        {
          "internalType": "bytes32",
          "name": "",
          "type": "bytes32"
        }
      ],
      "name": "totalContributions",
      "outputs": [
        {
          "internalType": "uint256",
          "name": "",
          "type": "uint256"
        }
      ],
      "stateMutability": "view",
      "type": "function"
    }
  ],
  "bytecode": "0x608060405234801561001057600080fd5b50610883806100206000396000f3fe608060405234801561001057600080fd5b50600436106100575760003560e01c80631ac44b951461005c5780632faf0b461461008c5780636693643f146100a85780636f83bbfe146100d857806388f4aeba14610108575b600080fd5b610076600480360381019061007191906103e6565b610138565b604051610083919061043f565b60405180910390f35b6100a660048036038101906100a191906105cc565b61015d565b005b6100c260048036038101906100bd91906103e6565b61022f565b6040516100cf919061043f565b60405180910390f35b6100f260048036038101906100ed919061064f565b610289565b6040516100ff919061043f565b60405180910390f35b610122600480360381019061011d91906103e6565b6102a1565b60405161012f919061043f565b60405180910390f35b6000602052816000526040600020602052806000526040600020600091509150505481565b8160008086815260200190815260200160002060008573ffffffffffffffffffffffffffffffffffffffff1673ffffffffffffffffffffffffffffffffffffffff16815260200190815260200160002060008282546101bc91906106ab565b92505081905550816001600086815260200190815260200160002060008282546101e691906106ab565b92505081905550837fb3e283b83b730db234bd5c9169b1890cef234b7082f3eb1d0e8509739efd27c78484846040516102219392919061076d565b60405180910390a250505050565b600080600084815260200190815260200160002060008373ffffffffffffffffffffffffffffffffffffffff1673ffffffffffffffffffffffffffffffffffffffff16815260200190815260200160002054905092915050565b60016020528060005260406000206000915090505481565b60008060016000858152602001908152602001600020549050600081036102cc576000915050610338565b8061271060008087815260200190815260200160002060008673ffffffffffffffffffffffffffffffffffffffff1673ffffffffffffffffffffffffffffffffffffffff1681526020019081526020016000205461032a91906107ab565b610334919061081c565b9150505b92915050565b6000604051905090565b600080fd5b600080fd5b6000819050919050565b61036581610352565b811461037057600080fd5b50565b6000813590506103828161035c565b92915050565b600073ffffffffffffffffffffffffffffffffffffffff82169050919050565b60006103b382610388565b9050919050565b6103c3816103a8565b81146103ce57600080fd5b50565b6000813590506103e0816103ba565b92915050565b600080604083850312156103fd576103fc610348565b5b600061040b85828601610373565b925050602061041c858286016103d1565b9150509250929050565b6000819050919050565b61043981610426565b82525050565b60006020820190506104546000830184610430565b92915050565b61046381610426565b811461046e57600080fd5b50565b6000813590506104808161045a565b92915050565b600080fd5b600080fd5b6000601f19601f8301169050919050565b7f4e487b7100000000000000000000000000000000000000000000000000000000600052604160045260246000fd5b6104d982610490565b810181811067ffffffffffffffff821117156104f8576104f76104a1565b5b80604052505050565b600061050b61033e565b905061051782826104d0565b919050565b600067ffffffffffffffff821115610537576105366104a1565b5b61054082610490565b9050602081019050919050565b82818337600083830152505050565b600061056f61056a8461051c565b610501565b90508281526020810184848401111561058b5761058a61048b565b5b61059684828561054d565b509392505050565b600082601f8301126105b3576105b2610486565b5b81356105c384826020860161055c565b91505092915050565b600080600080608085870312156105e6576105e5610348565b5b60006105f487828801610373565b9450506020610605878288016103d1565b935050604061061687828801610471565b925050606085013567ffffffffffffffff8111156106375761063661034d565b5b6106438782880161059e565b91505092959194509250565b60006020828403121561066557610664610348565b5b600061067384828501610373565b91505092915050565b7f4e487b7100000000000000000000000000000000000000000000000000000000600052601160045260246000fd5b60006106b682610426565b91506106c183610426565b92508282019050808211156106d9576106d861067c565b5b92915050565b6106e8816103a8565b82525050565b600081519050919050565b600082825260208201905092915050565b60005b8381101561072857808201518184015260208101905061070d565b60008484015250505050565b600061073f826106ee565b61074981856106f9565b935061075981856020860161070a565b61076281610490565b840191505092915050565b600060608201905061078260008301866106df565b61078f6020830185610430565b81810360408301526107a18184610734565b9050949350505050565b60006107b682610426565b91506107c183610426565b92508282026107cf81610426565b915082820484148315176107e6576107e561067c565b5b5092915050565b7f4e487b7100000000000000000000000000000000000000000000000000000000600052601260045260246000fd5b600061082782610426565b915061083283610426565b925082610842576108416107ed565b5b82820490509291505056fea2646970667358221220afaceafd75d39ca7f05aac148351b6d9acdbf37ab69dc7ae2c86900d4d3eaa2664736f6c63430008140033",
  "linkReferences": {},
  "deployedLinkReferences": {}
}