{
  "_format": "hh-sol-artifact-1",
  "contractName": "Treasury",
  "sourceName": "contracts/Treasury.sol",
  "abi": [
    {
      "inputs": [
        {
          "internalType": "address",
          "name": "_tracker",
          "type": "address"
        }
      ],
      "stateMutability": "nonpayable",
      "type": "constructor"
    },
    {
      "anonymous": false,
      "inputs": [
        {
          "indexed": true,
          "internalType": "bytes32",
          "name": "workspaceId",
          "type": "bytes32"
        },
        {
          "indexed": false,
          "internalType": "uint256",
          "name": "amount",
          "type": "uint256"
        }
      ],
      "name": "Deposited",
      "type": "event"
    },
    {
      "anonymous": false,
      "inputs": [
        {
          "indexed": true,
          "internalType": "bytes32",
          "name": "workspaceId",
          "type": "bytes32"
        },
        {
          "indexed": false,
          "internalType": "uint256",
          "name": "total",
          "type": "uint256"
        }
      ],
      "name": "RewardsDistributed",
      "type": "event"
    },
    {
      "inputs": [
        {
          "internalType": "bytes32",
          "name": "workspaceId",
          "type": "bytes32"
        }
      ],
      "name": "deposit",
      "outputs": [],
      "stateMutability": "payable",
      "type": "function"
    },
    {
      "inputs": [
        {
          "internalType": "bytes32",
          "name": "workspaceId",
          "type": "bytes32"
        },
        {
          "internalType": "address[]",
          "name": "contributors",
          "type": "address[]"
        }
      ],
      "name": "distributeRewards",
      "outputs": [],
      "stateMutability": "nonpayable",
      "type": "function"
    },
    {
      "inputs": [],
      "name": "tracker",
      "outputs": [
        {
          "internalType": "contract ContributionTracker",
          "name": "",
          "type": "address"
        }
      ],
      "stateMutability": "view",
      "type": "function"
    },
    {
      "inputs": [
        {
          "internalType": "bytes32",
          "name": "",
          "type": "bytes32"
        }
      ],
      "name": "workspaceBalance",
      "outputs": [
        {
          "internalType": "uint256",
          "name": "",
          "type": "uint256"
        }
      ],
      "stateMutability": "view",
      "type": "function"
    }
  ],
  "bytecode": "0x608060405234801561001057600080fd5b50604051610c2e380380610c2e833981810160405281019061003291906100db565b806000806101000a81548173ffffffffffffffffffffffffffffffffffffffff021916908373ffffffffffffffffffffffffffffffffffffffff16021790555050610108565b600080fd5b600073ffffffffffffffffffffffffffffffffffffffff82169050919050565b60006100a88261007d565b9050919050565b6100b88161009d565b81146100c357600080fd5b50565b6000815190506100d5816100af565b92915050565b6000602082840312156100f1576100f0610078565b5b60006100ff848285016100c6565b91505092915050565b610b17806101176000396000f3fe60806040526004361061003f5760003560e01c80630895ae0914610044578063a75121aa14610081578063b214faa5146100aa578063f52bccad146100c6575b600080fd5b34801561005057600080fd5b5061006b600480360381019061006691906104d3565b6100f1565b6040516100789190610519565b60405180910390f35b34801561008d57600080fd5b506100a860048036038101906100a391906106eb565b610109565b005b6100c460048036038101906100bf91906104d3565b610400565b005b3480156100d257600080fd5b506100db610465565b6040516100e891906107a6565b60405180910390f35b60016020528060005260406000206000915090505481565b60006001600084815260200190815260200160002054905060008111610164576040517f08c379a000000000000000000000000000000000000000000000000000000000815260040161015b9061081e565b60405180910390fd5b60008060009054906101000a900473ffffffffffffffffffffffffffffffffffffffff1673ffffffffffffffffffffffffffffffffffffffff16636f83bbfe856040518263ffffffff1660e01b81526004016101c0919061084d565b602060405180830381865afa1580156101dd573d6000803e3d6000fd5b505050506040513d601f19601f820116820180604052508101906102019190610894565b905060008111610246576040517f08c379a000000000000000000000000000000000000000000000000000000000815260040161023d9061090d565b60405180910390fd5b60005b83518110156103a85760008060009054906101000a900473ffffffffffffffffffffffffffffffffffffffff1673ffffffffffffffffffffffffffffffffffffffff16631ac44b95878785815181106102a5576102a461092d565b5b60200260200101516040518363ffffffff1660e01b81526004016102ca92919061096b565b602060405180830381865afa1580156102e7573d6000803e3d6000fd5b505050506040513d601f19601f8201168201806040525081019061030b9190610894565b9050600083828661031c91906109c3565b6103269190610a34565b90506000811115610393578583815181106103445761034361092d565b5b602002602001015173ffffffffffffffffffffffffffffffffffffffff166108fc829081150290604051600060405180830381858888f19350505050158015610391573d6000803e3d6000fd5b505b505080806103a090610a65565b915050610249565b5060006001600086815260200190815260200160002081905550837f603c893fe5a7abb065fd37be5d74b7570a708f31c5b02b409779f57f8ab59788836040516103f29190610519565b60405180910390a250505050565b346001600083815260200190815260200160002060008282546104239190610aad565b92505081905550807fcd2fe07293de5928c5df9505b65a8d6506f8668dfe81af09090920687edc48a93460405161045a9190610519565b60405180910390a250565b60008054906101000a900473ffffffffffffffffffffffffffffffffffffffff1681565b6000604051905090565b600080fd5b600080fd5b6000819050919050565b6104b08161049d565b81146104bb57600080fd5b50565b6000813590506104cd816104a7565b92915050565b6000602082840312156104e9576104e8610493565b5b60006104f7848285016104be565b91505092915050565b6000819050919050565b61051381610500565b82525050565b600060208201905061052e600083018461050a565b92915050565b600080fd5b6000601f19601f8301169050919050565b7f4e487b7100000000000000000000000000000000000000000000000000000000600052604160045260246000fd5b61058282610539565b810181811067ffffffffffffffff821117156105a1576105a061054a565b5b80604052505050565b60006105b4610489565b90506105c08282610579565b919050565b600067ffffffffffffffff8211156105e0576105df61054a565b5b602082029050602081019050919050565b600080fd5b600073ffffffffffffffffffffffffffffffffffffffff82169050919050565b6000610621826105f6565b9050919050565b61063181610616565b811461063c57600080fd5b50565b60008135905061064e81610628565b92915050565b6000610667610662846105c5565b6105aa565b9050808382526020820190506020840283018581111561068a576106896105f1565b5b835b818110156106b3578061069f888261063f565b84526020840193505060208101905061068c565b5050509392505050565b600082601f8301126106d2576106d1610534565b5b81356106e2848260208601610654565b91505092915050565b6000806040838503121561070257610701610493565b5b6000610710858286016104be565b925050602083013567ffffffffffffffff81111561073157610730610498565b5b61073d858286016106bd565b9150509250929050565b6000819050919050565b600061076c610767610762846105f6565b610747565b6105f6565b9050919050565b600061077e82610751565b9050919050565b600061079082610773565b9050919050565b6107a081610785565b82525050565b60006020820190506107bb6000830184610797565b92915050565b600082825260208201905092915050565b7f4e6f2062616c616e636500000000000000000000000000000000000000000000600082015250565b6000610808600a836107c1565b9150610813826107d2565b602082019050919050565b60006020820190508181036000830152610837816107fb565b9050919050565b6108478161049d565b82525050565b6000602082019050610862600083018461083e565b92915050565b61087181610500565b811461087c57600080fd5b50565b60008151905061088e81610868565b92915050565b6000602082840312156108aa576108a9610493565b5b60006108b88482850161087f565b91505092915050565b7f4e6f20636f6e747269627574696f6e7300000000000000000000000000000000600082015250565b60006108f76010836107c1565b9150610902826108c1565b602082019050919050565b60006020820190508181036000830152610926816108ea565b9050919050565b7f4e487b7100000000000000000000000000000000000000000000000000000000600052603260045260246000fd5b61096581610616565b82525050565b6000604082019050610980600083018561083e565b61098d602083018461095c565b9392505050565b7f4e487b7100000000000000000000000000000000000000000000000000000000600052601160045260246000fd5b60006109ce82610500565b91506109d983610500565b92508282026109e781610500565b915082820484148315176109fe576109fd610994565b5b5092915050565b7f4e487b7100000000000000000000000000000000000000000000000000000000600052601260045260246000fd5b6000610a3f82610500565b9150610a4a83610500565b925082610a5a57610a59610a05565b5b828204905092915050565b6000610a7082610500565b91507fffffffffffffffffffffffffffffffffffffffffffffffffffffffffffffffff8203610aa257610aa1610994565b5b600182019050919050565b6000610ab882610500565b9150610ac383610500565b9250828201905080821115610adb57610ada610994565b5b9291505056fea26469706673582212205ae2ab4f80b1ec72d52b401370c4ebc92621c8332c1d148c32c9c2260fe1ff2b64736f6c63430008140033",
  "linkReferences": {},
  "deployedLinkReferences": {}
}