{
  "_format": "hh-sol-artifact-1",
  "contractName": "Treasury",
  "sourceName": "contracts/Treasury.sol",
  "abi": [
    {
      "inputs": [
        {
          "internalType": "address",
          "name": "contributionAddress",
          "type": "address"
        }
      ],
      "stateMutability": "nonpayable",
      "type": "constructor"
    },
    {
      "anonymous": false,
      "inputs": [
        {
          "indexed": true,
          "internalType": "uint256",
          "name": "workspaceId",
          "type": "uint256"
        },
        {
          "indexed": false,
          "internalType": "uint256",
          "name": "amount",
          "type": "uint256"
        }
      ],
      "name": "Deposited",
      "type": "event"
    },
    {
      "anonymous": false,
      "inputs": [
        {
          "indexed": true,
          "internalType": "address",
          "name": "user",
          "type": "address"
        },
        {
          "indexed": false,
          "internalType": "uint256",
          "name": "amount",
          "type": "uint256"
        }
      ],
      "name": "RewardClaimed",
      "type": "event"
    },
    {
      "anonymous": false,
      "inputs": [
        {
          "indexed": true,
          "internalType": "uint256",
          "name": "workspaceId",
          "type": "uint256"
        },
        {
          "indexed": false,
          "internalType": "uint256",
          "name": "totalAmount",
          "type": "uint256"
        }
      ],
      "name": "RewardsCalculated",
      "type": "event"
    },
    {
      "inputs": [],
      "name": "admin",
      "outputs": [
        {
          "internalType": "address",
          "name": "",
          "type": "address"
        }
      ],
      "stateMutability": "view",
      "type": "function"
    },
    {
      "inputs": [
        {
          "internalType": "uint256",
          "name": "workspaceId",
          "type": "uint256"
        }
      ],
      "name": "claimReward",
      "outputs": [],
      "stateMutability": "nonpayable",
      "type": "function"
    },
    {
      "inputs": [],
      "name": "contribution",
      "outputs": [
        {
          "internalType": "contract Contribution",
          "name": "",
          "type": "address"
        }
      ],
      "stateMutability": "view",
      "type": "function"
    },
    {
      "inputs": [
        {
          "internalType": "uint256",
          "name": "workspaceId",
          "type": "uint256"
        }
      ],
      "name": "deposit",
      "outputs": [],
      "stateMutability": "payable",
      "type": "function"
    },
    {
      "inputs": [
        {
          "internalType": "uint256",
          "name": "workspaceId",
          "type": "uint256"
        },
        {
          "internalType": "address[]",
          "name": "recipients",
          "type": "address[]"
        }
      ],
      "name": "distributeRewards",
      "outputs": [],
      "stateMutability": "nonpayable",
      "type": "function"
    },
    {
      "inputs": [
        {
          "internalType": "uint256",
          "name": "",
          "type": "uint256"
        },
        {
          "internalType": "address",
          "name": "",
          "type": "address"
        }
      ],
      "name": "pendingRewards",
      "outputs": [
        {
          "internalType": "uint256",
          "name": "",
          "type": "uint256"
        }
      ],
      "stateMutability": "view",
      "type": "function"
    },
    {
      "inputs": [
        {
          "internalType": "uint256",
          "name": "",
          "type": "uint256"
        }
      ],
      "name": "workspaceBalance",
      "outputs": [
        {
          "internalType": "uint256",
          "name": "",
          "type": "uint256"
        }
      ],
      "stateMutability": "view",
      "type": "function"
    }
  ],
  "bytecode": "0x608060405234801561001057600080fd5b506040516108e43803806108e483398101604081905261002f9161005d565b600080546001600160a01b039092166001600160a01b0319928316179055600180549091163317905561008d565b60006020828403121561006f57600080fd5b81516001600160a01b038116811461008657600080fd5b9392505050565b6108488061009c6000396000f3fe6080604052600436106100705760003560e01c8063ae169a501161004e578063ae169a501461010f578063b6b55f251461012f578063d18df53c14610142578063f851a4401461017a57600080fd5b80631aa595421461007557806350520b1f1461009757806373eea810146100d4575b600080fd5b34801561008157600080fd5b50610095610090366004610660565b61019a565b005b3480156100a357600080fd5b506000546100b7906001600160a01b031681565b6040516001600160a01b0390911681526020015b60405180910390f35b3480156100e057600080fd5b506101016100ef3660046106df565b60026020526000908152604090205481565b6040519081526020016100cb565b34801561011b57600080fd5b5061009561012a3660046106df565b61049d565b61009561013d3660046106df565b6105ca565b34801561014e57600080fd5b5061010161015d366004610714565b600360209081526000928352604080842090915290825290205481565b34801561018657600080fd5b506001546100b7906001600160a01b031681565b6001546001600160a01b031633146101ea5760405162461bcd60e51b815260206004820152600e60248201526d139bdd08185d5d1a1bdc9a5e995960921b60448201526064015b60405180910390fd5b60008054604051631a9ae02560e31b8152600481018690526001600160a01b039091169063d4d7012890602401602060405180830381865afa158015610234573d6000803e3d6000fd5b505050506040513d601f19601f820116820180604052508101906102589190610740565b600085815260026020526040902054909150816102aa5760405162461bcd60e51b815260206004820152601060248201526f4e6f20636f6e747269627574696f6e7360801b60448201526064016101e1565b600081116102e55760405162461bcd60e51b81526020600482015260086024820152674e6f2066756e647360c01b60448201526064016101e1565b60005b8381101561044857600080546001600160a01b0316633d891f598888888681811061031557610315610759565b905060200201602081019061032a919061076f565b6040516001600160e01b031960e085901b16815260048101929092526001600160a01b03166024820152604401602060405180830381865afa158015610374573d6000803e3d6000fd5b505050506040513d601f19601f820116820180604052508101906103989190610740565b9050806000036103a85750610436565b6000846103b583866107a7565b6103bf91906107c4565b9050801561043357600088815260036020526040812082918989878181106103e9576103e9610759565b90506020020160208101906103fe919061076f565b6001600160a01b03166001600160a01b03168152602001908152602001600020600082825461042d91906107e6565b90915550505b50505b80610440816107f9565b9150506102e8565b50600085815260026020526040808220919091555185907f75b8bc4c9972548a1b952e44da1064fbdf4ea4b8ac8d9c27feebbb0946deb9479061048e9084815260200190565b60405180910390a25050505050565b6000818152600360209081526040808320338452909152902054806104f05760405162461bcd60e51b8152602060048201526009602482015268139bc81c995dd85c9960ba1b60448201526064016101e1565b60008281526003602090815260408083203380855292528083208390555183908381818185875af1925050503d8060008114610548576040519150601f19603f3d011682016040523d82523d6000602084013e61054d565b606091505b50509050806105905760405162461bcd60e51b815260206004820152600f60248201526e151c985b9cd9995c8819985a5b1959608a1b60448201526064016101e1565b60405182815233907f106f923f993c2149d49b4255ff723acafa1f2d94393f561d3eda32ae348f72419060200160405180910390a2505050565b600034116106055760405162461bcd60e51b81526020600482015260086024820152674e6f2076616c756560c01b60448201526064016101e1565b600081815260026020526040812080543492906106239084906107e6565b909155505060405134815281907f06da3309189fa49284f335d2c2bcb4cb0b8ad2a59ad92a9bdebeeb8f1ceba5119060200160405180910390a250565b60008060006040848603121561067557600080fd5b83359250602084013567ffffffffffffffff8082111561069457600080fd5b818601915086601f8301126106a857600080fd5b8135818111156106b757600080fd5b8760208260051b85010111156106cc57600080fd5b6020830194508093505050509250925092565b6000602082840312156106f157600080fd5b5035919050565b80356001600160a01b038116811461070f57600080fd5b919050565b6000806040838503121561072757600080fd5b82359150610737602084016106f8565b90509250929050565b60006020828403121561075257600080fd5b5051919050565b634e487b7160e01b600052603260045260246000fd5b60006020828403121561078157600080fd5b61078a826106f8565b9392505050565b634e487b7160e01b600052601160045260246000fd5b80820281158282048414176107be576107be610791565b92915050565b6000826107e157634e487b7160e01b600052601260045260246000fd5b500490565b808201808211156107be576107be610791565b60006001820161080b5761080b610791565b506001019056fea26469706673582212208d6849185090f2f9c76598b03a272ce5cb9b209087e99ab074ac98ee8c0b3db664736f6c63430008140033",
  "linkReferences": {},
  "deployedLinkReferences": {}
}